{
  "contractName": "ERC721Polygon",
  "abi": [
    {
      "inputs": [
        {
          "internalType": "string",
          "name": "name_",
          "type": "string"
        },
        {
          "internalType": "string",
          "name": "symbol_",
          "type": "string"
        },
        {
          "internalType": "uint256",
          "name": "totalSupply_",
          "type": "uint256"
        },
        {
          "internalType": "address",
          "name": "creator_",
          "type": "address"
        },
        {
          "internalType": "bool",
          "name": "addJSONToUrl_",
          "type": "bool"
        },
        {
          "internalType": "string",
          "name": "uri_",
          "type": "string"
        }
      ],
      "stateMutability": "nonpayable",
      "type": "constructor"
    },
    {
      "anonymous": false,
      "inputs": [
        {
          "indexed": true,
          "internalType": "address",
          "name": "owner",
          "type": "address"
        },
        {
          "indexed": true,
          "internalType": "address",
          "name": "approved",
          "type": "address"
        },
        {
          "indexed": true,
          "internalType": "uint256",
          "name": "tokenId",
          "type": "uint256"
        }
      ],
      "name": "Approval",
      "type": "event"
    },
    {
      "anonymous": false,
      "inputs": [
        {
          "indexed": true,
          "internalType": "address",
          "name": "owner",
          "type": "address"
        },
        {
          "indexed": true,
          "internalType": "address",
          "name": "operator",
          "type": "address"
        },
        {
          "indexed": false,
          "internalType": "bool",
          "name": "approved",
          "type": "bool"
        }
      ],
      "name": "ApprovalForAll",
      "type": "event"
    },
    {
      "anonymous": false,
      "inputs": [
        {
          "indexed": false,
          "internalType": "address",
          "name": "userAddress",
          "type": "address"
        },
        {
          "indexed": false,
          "internalType": "address payable",
          "name": "relayerAddress",
          "type": "address"
        },
        {
          "indexed": false,
          "internalType": "bytes",
          "name": "functionSignature",
          "type": "bytes"
        }
      ],
      "name": "MetaTransactionExecuted",
      "type": "event"
    },
    {
      "anonymous": false,
      "inputs": [
        {
          "indexed": true,
          "internalType": "address",
          "name": "previousOwner",
          "type": "address"
        },
        {
          "indexed": true,
          "internalType": "address",
          "name": "newOwner",
          "type": "address"
        }
      ],
      "name": "OwnershipTransferred",
      "type": "event"
    },
    {
      "anonymous": false,
      "inputs": [
        {
          "indexed": true,
          "internalType": "address",
          "name": "from",
          "type": "address"
        },
        {
          "indexed": true,
          "internalType": "address",
          "name": "to",
          "type": "address"
        },
        {
          "indexed": true,
          "internalType": "uint256",
          "name": "tokenId",
          "type": "uint256"
        }
      ],
      "name": "Transfer",
      "type": "event"
    },
    {
      "inputs": [],
      "name": "ERC712_VERSION",
      "outputs": [
        {
          "internalType": "string",
          "name": "",
          "type": "string"
        }
      ],
      "stateMutability": "view",
      "type": "function",
      "constant": true
    },
    {
      "inputs": [],
      "name": "creator",
      "outputs": [
        {
          "internalType": "address",
          "name": "",
          "type": "address"
        }
      ],
      "stateMutability": "view",
      "type": "function",
      "constant": true
    },
    {
      "inputs": [
        {
          "internalType": "address",
          "name": "userAddress",
          "type": "address"
        },
        {
          "internalType": "bytes",
          "name": "functionSignature",
          "type": "bytes"
        },
        {
          "internalType": "bytes32",
          "name": "sigR",
          "type": "bytes32"
        },
        {
          "internalType": "bytes32",
          "name": "sigS",
          "type": "bytes32"
        },
        {
          "internalType": "uint8",
          "name": "sigV",
          "type": "uint8"
        }
      ],
      "name": "executeMetaTransaction",
      "outputs": [
        {
          "internalType": "bytes",
          "name": "",
          "type": "bytes"
        }
      ],
      "stateMutability": "payable",
      "type": "function",
      "payable": true
    },
    {
      "inputs": [],
      "name": "getChainId",
      "outputs": [
        {
          "internalType": "uint256",
          "name": "",
          "type": "uint256"
        }
      ],
      "stateMutability": "view",
      "type": "function",
      "constant": true
    },
    {
      "inputs": [],
      "name": "getDomainSeperator",
      "outputs": [
        {
          "internalType": "bytes32",
          "name": "",
          "type": "bytes32"
        }
      ],
      "stateMutability": "view",
      "type": "function",
      "constant": true
    },
    {
      "inputs": [
        {
          "internalType": "address",
          "name": "user",
          "type": "address"
        }
      ],
      "name": "getNonce",
      "outputs": [
        {
          "internalType": "uint256",
          "name": "nonce",
          "type": "uint256"
        }
      ],
      "stateMutability": "view",
      "type": "function",
      "constant": true
    },
    {
      "inputs": [],
      "name": "owner",
      "outputs": [
        {
          "internalType": "address",
          "name": "",
          "type": "address"
        }
      ],
      "stateMutability": "view",
      "type": "function",
      "constant": true
    },
    {
      "inputs": [],
      "name": "renounceOwnership",
      "outputs": [],
      "stateMutability": "nonpayable",
      "type": "function"
    },
    {
      "inputs": [],
      "name": "totalSupply",
      "outputs": [
        {
          "internalType": "uint256",
          "name": "",
          "type": "uint256"
        }
      ],
      "stateMutability": "view",
      "type": "function",
      "constant": true
    },
    {
      "inputs": [
        {
          "internalType": "address",
          "name": "newOwner",
          "type": "address"
        }
      ],
      "name": "transferOwnership",
      "outputs": [],
      "stateMutability": "nonpayable",
      "type": "function"
    },
    {
      "inputs": [
        {
          "internalType": "uint256",
          "name": "count",
          "type": "uint256"
        }
      ],
      "name": "mint",
      "outputs": [],
      "stateMutability": "nonpayable",
      "type": "function"
    },
    {
      "inputs": [
        {
          "internalType": "uint256",
          "name": "tokenId",
          "type": "uint256"
        }
      ],
      "name": "tokenURI",
      "outputs": [
        {
          "internalType": "string",
          "name": "",
          "type": "string"
        }
      ],
      "stateMutability": "view",
      "type": "function",
      "constant": true
    },
    {
      "inputs": [
        {
          "internalType": "string",
          "name": "baseURI",
          "type": "string"
        }
      ],
      "name": "setBaseURI",
      "outputs": [],
      "stateMutability": "nonpayable",
      "type": "function"
    },
    {
      "inputs": [
        {
          "internalType": "bytes4",
          "name": "interfaceId",
          "type": "bytes4"
        }
      ],
      "name": "supportsInterface",
      "outputs": [
        {
          "internalType": "bool",
          "name": "",
          "type": "bool"
        }
      ],
      "stateMutability": "view",
      "type": "function",
      "constant": true
    },
    {
      "inputs": [
        {
          "internalType": "address",
          "name": "owner",
          "type": "address"
        }
      ],
      "name": "balanceOf",
      "outputs": [
        {
          "internalType": "uint256",
          "name": "",
          "type": "uint256"
        }
      ],
      "stateMutability": "view",
      "type": "function",
      "constant": true
    },
    {
      "inputs": [
        {
          "internalType": "uint256",
          "name": "tokenId",
          "type": "uint256"
        }
      ],
      "name": "ownerOf",
      "outputs": [
        {
          "internalType": "address",
          "name": "",
          "type": "address"
        }
      ],
      "stateMutability": "view",
      "type": "function",
      "constant": true
    },
    {
      "inputs": [],
      "name": "name",
      "outputs": [
        {
          "internalType": "string",
          "name": "",
          "type": "string"
        }
      ],
      "stateMutability": "view",
      "type": "function",
      "constant": true
    },
    {
      "inputs": [],
      "name": "symbol",
      "outputs": [
        {
          "internalType": "string",
          "name": "",
          "type": "string"
        }
      ],
      "stateMutability": "view",
      "type": "function",
      "constant": true
    },
    {
      "inputs": [
        {
          "internalType": "address",
          "name": "to",
          "type": "address"
        },
        {
          "internalType": "uint256",
          "name": "tokenId",
          "type": "uint256"
        }
      ],
      "name": "approve",
      "outputs": [],
      "stateMutability": "nonpayable",
      "type": "function"
    },
    {
      "inputs": [
        {
          "internalType": "uint256",
          "name": "tokenId",
          "type": "uint256"
        }
      ],
      "name": "getApproved",
      "outputs": [
        {
          "internalType": "address",
          "name": "",
          "type": "address"
        }
      ],
      "stateMutability": "view",
      "type": "function",
      "constant": true
    },
    {
      "inputs": [
        {
          "internalType": "address",
          "name": "operator",
          "type": "address"
        },
        {
          "internalType": "bool",
          "name": "approved",
          "type": "bool"
        }
      ],
      "name": "setApprovalForAll",
      "outputs": [],
      "stateMutability": "nonpayable",
      "type": "function"
    },
    {
      "inputs": [
        {
          "internalType": "address",
          "name": "owner",
          "type": "address"
        },
        {
          "internalType": "address",
          "name": "operator",
          "type": "address"
        }
      ],
      "name": "isApprovedForAll",
      "outputs": [
        {
          "internalType": "bool",
          "name": "",
          "type": "bool"
        }
      ],
      "stateMutability": "view",
      "type": "function",
      "constant": true
    },
    {
      "inputs": [
        {
          "internalType": "address",
          "name": "from",
          "type": "address"
        },
        {
          "internalType": "address",
          "name": "to",
          "type": "address"
        },
        {
          "internalType": "uint256",
          "name": "tokenId",
          "type": "uint256"
        }
      ],
      "name": "transferFrom",
      "outputs": [],
      "stateMutability": "nonpayable",
      "type": "function"
    },
    {
      "inputs": [
        {
          "internalType": "address",
          "name": "from",
          "type": "address"
        },
        {
          "internalType": "address",
          "name": "to",
          "type": "address"
        },
        {
          "internalType": "uint256",
          "name": "tokenId",
          "type": "uint256"
        }
      ],
      "name": "safeTransferFrom",
      "outputs": [],
      "stateMutability": "nonpayable",
      "type": "function"
    },
    {
      "inputs": [
        {
          "internalType": "address",
          "name": "from",
          "type": "address"
        },
        {
          "internalType": "address",
          "name": "to",
          "type": "address"
        },
        {
          "internalType": "uint256",
          "name": "tokenId",
          "type": "uint256"
        },
        {
          "internalType": "bytes",
          "name": "_data",
          "type": "bytes"
        }
      ],
      "name": "safeTransferFrom",
      "outputs": [],
      "stateMutability": "nonpayable",
      "type": "function"
    }
  ],
  "bytecode": "0x608060405260008060146101000a81548160ff02191690831515021790555060405180602001604052806000815250600d9080519060200190620000459291906200034d565b503480156200005357600080fd5b50604051620041c4380380620041c48339818101604052810190620000799190620004b4565b620000996200008d620001ba60201b60201c565b620001d660201b60201c565b8560039080519060200190620000b19291906200034d565b508460049080519060200190620000ca9291906200034d565b5080600d9080519060200190620000e39291906200034d565b5082600b60006101000a81548173ffffffffffffffffffffffffffffffffffffffff021916908373ffffffffffffffffffffffffffffffffffffffff16021790555083600a8190555081600e60006101000a81548160ff021916908315150217905550600a5460066000600b60009054906101000a900473ffffffffffffffffffffffffffffffffffffffff1673ffffffffffffffffffffffffffffffffffffffff1673ffffffffffffffffffffffffffffffffffffffff168152602001908152602001600020819055505050505050506200079d565b6000620001d16200029a60201b620016421760201c565b905090565b60008060009054906101000a900473ffffffffffffffffffffffffffffffffffffffff169050816000806101000a81548173ffffffffffffffffffffffffffffffffffffffff021916908373ffffffffffffffffffffffffffffffffffffffff1602179055508173ffffffffffffffffffffffffffffffffffffffff168173ffffffffffffffffffffffffffffffffffffffff167f8be0079c531659141344cd1fd0a4f28419497f9722a3daafe3b4186f6b6457e060405160405180910390a35050565b60003073ffffffffffffffffffffffffffffffffffffffff163373ffffffffffffffffffffffffffffffffffffffff1614156200034657600080368080601f016020809104026020016040519081016040528093929190818152602001838380828437600081840152601f19601f820116905080830192505050505050509050600080369050905073ffffffffffffffffffffffffffffffffffffffff8183015116925050506200034a565b3390505b90565b8280546200035b9062000674565b90600052602060002090601f0160209004810192826200037f5760008555620003cb565b82601f106200039a57805160ff1916838001178555620003cb565b82800160010185558215620003cb579182015b82811115620003ca578251825591602001919060010190620003ad565b5b509050620003da9190620003de565b5090565b5b80821115620003f9576000816000905550600101620003df565b5090565b6000620004146200040e84620005be565b62000595565b9050828152602081018484840111156200042d57600080fd5b6200043a8482856200063e565b509392505050565b60008151905062000453816200074f565b92915050565b6000815190506200046a8162000769565b92915050565b600082601f8301126200048257600080fd5b815162000494848260208601620003fd565b91505092915050565b600081519050620004ae8162000783565b92915050565b60008060008060008060c08789031215620004ce57600080fd5b600087015167ffffffffffffffff811115620004e957600080fd5b620004f789828a0162000470565b965050602087015167ffffffffffffffff8111156200051557600080fd5b6200052389828a0162000470565b95505060406200053689828a016200049d565b94505060606200054989828a0162000442565b93505060806200055c89828a0162000459565b92505060a087015167ffffffffffffffff8111156200057a57600080fd5b6200058889828a0162000470565b9150509295509295509295565b6000620005a1620005b4565b9050620005af8282620006aa565b919050565b6000604051905090565b600067ffffffffffffffff821115620005dc57620005db6200070f565b5b620005e7826200073e565b9050602081019050919050565b6000620006018262000614565b9050919050565b60008115159050919050565b600073ffffffffffffffffffffffffffffffffffffffff82169050919050565b6000819050919050565b60005b838110156200065e57808201518184015260208101905062000641565b838111156200066e576000848401525b50505050565b600060028204905060018216806200068d57607f821691505b60208210811415620006a457620006a3620006e0565b5b50919050565b620006b5826200073e565b810181811067ffffffffffffffff82111715620006d757620006d66200070f565b5b80604052505050565b7f4e487b7100000000000000000000000000000000000000000000000000000000600052602260045260246000fd5b7f4e487b7100000000000000000000000000000000000000000000000000000000600052604160045260246000fd5b6000601f19601f8301169050919050565b6200075a81620005f4565b81146200076657600080fd5b50565b620007748162000608565b81146200078057600080fd5b50565b6200078e8162000634565b81146200079a57600080fd5b50565b613a1780620007ad6000396000f3fe6080604052600436106101665760003560e01c806342842e0e116100d157806395d89b411161008a578063b88d4fde11610064578063b88d4fde14610531578063c87b56dd1461055a578063e985e9c514610597578063f2fde38b146105d457610166565b806395d89b41146104b4578063a0712d68146104df578063a22cb4651461050857610166565b806342842e0e146103a657806355f804b3146103cf5780636352211e146103f857806370a0823114610435578063715018a6146104725780638da5cb5b1461048957610166565b80630f7e5970116101235780630f7e59701461029457806318160ddd146102bf57806320379ee5146102ea57806323b872dd146103155780632d0335ab1461033e5780633408e4701461037b57610166565b806301ffc9a71461016b57806302d05d3f146101a857806306fdde03146101d3578063081812fc146101fe578063095ea7b31461023b5780630c53c51c14610264575b600080fd5b34801561017757600080fd5b50610192600480360381019061018d91906126b1565b6105fd565b60405161019f9190612c8b565b60405180910390f35b3480156101b457600080fd5b506101bd6106df565b6040516101ca9190612be6565b60405180910390f35b3480156101df57600080fd5b506101e8610705565b6040516101f59190612d6d565b60405180910390f35b34801561020a57600080fd5b5061022560048036038101906102209190612744565b610797565b6040516102329190612be6565b60405180910390f35b34801561024757600080fd5b50610262600480360381019061025d9190612675565b61081c565b005b61027e600480360381019061027991906125e6565b610934565b60405161028b9190612d4b565b60405180910390f35b3480156102a057600080fd5b506102a9610b9f565b6040516102b69190612d6d565b60405180910390f35b3480156102cb57600080fd5b506102d4610bd8565b6040516102e19190612faf565b60405180910390f35b3480156102f657600080fd5b506102ff610bde565b60405161030c9190612ca6565b60405180910390f35b34801561032157600080fd5b5061033c600480360381019061033791906124e0565b610be8565b005b34801561034a57600080fd5b506103656004803603810190610360919061247b565b610c48565b6040516103729190612faf565b60405180910390f35b34801561038757600080fd5b50610390610c91565b60405161039d9190612faf565b60405180910390f35b3480156103b257600080fd5b506103cd60048036038101906103c891906124e0565b610c9e565b005b3480156103db57600080fd5b506103f660048036038101906103f19190612703565b610cbe565b005b34801561040457600080fd5b5061041f600480360381019061041a9190612744565b610d54565b60405161042c9190612be6565b60405180910390f35b34801561044157600080fd5b5061045c6004803603810190610457919061247b565b610e57565b6040516104699190612faf565b60405180910390f35b34801561047e57600080fd5b50610487610f0f565b005b34801561049557600080fd5b5061049e610f97565b6040516104ab9190612be6565b60405180910390f35b3480156104c057600080fd5b506104c9610fc0565b6040516104d69190612d6d565b60405180910390f35b3480156104eb57600080fd5b5061050660048036038101906105019190612744565b611052565b005b34801561051457600080fd5b5061052f600480360381019061052a91906125aa565b611197565b005b34801561053d57600080fd5b506105586004803603810190610553919061252f565b611318565b005b34801561056657600080fd5b50610581600480360381019061057c9190612744565b61137a565b60405161058e9190612d6d565b60405180910390f35b3480156105a357600080fd5b506105be60048036038101906105b991906124a4565b611464565b6040516105cb9190612c8b565b60405180910390f35b3480156105e057600080fd5b506105fb60048036038101906105f6919061247b565b61154a565b005b60007f80ac58cd000000000000000000000000000000000000000000000000000000007bffffffffffffffffffffffffffffffffffffffffffffffffffffffff1916827bffffffffffffffffffffffffffffffffffffffffffffffffffffffff191614806106c857507f5b5e139f000000000000000000000000000000000000000000000000000000007bffffffffffffffffffffffffffffffffffffffffffffffffffffffff1916827bffffffffffffffffffffffffffffffffffffffffffffffffffffffff1916145b806106d857506106d7826116f3565b5b9050919050565b600b60009054906101000a900473ffffffffffffffffffffffffffffffffffffffff1681565b60606003805461071490613239565b80601f016020809104026020016040519081016040528092919081815260200182805461074090613239565b801561078d5780601f106107625761010080835404028352916020019161078d565b820191906000526020600020905b81548152906001019060200180831161077057829003601f168201915b5050505050905090565b60006107a28261175d565b6107e1576040517f08c379a00000000000000000000000000000000000000000000000000000000081526004016107d890612ecf565b60405180910390fd5b6007600083815260200190815260200160002060009054906101000a900473ffffffffffffffffffffffffffffffffffffffff169050919050565b600061082782610d54565b90508073ffffffffffffffffffffffffffffffffffffffff168373ffffffffffffffffffffffffffffffffffffffff161415610898576040517f08c379a000000000000000000000000000000000000000000000000000000000815260040161088f90612f6f565b60405180910390fd5b8073ffffffffffffffffffffffffffffffffffffffff166108b761176b565b73ffffffffffffffffffffffffffffffffffffffff1614806108e657506108e5816108e061176b565b611464565b5b610925576040517f08c379a000000000000000000000000000000000000000000000000000000000815260040161091c90612e6f565b60405180910390fd5b61092f838361177a565b505050565b606060006040518060600160405280600260008a73ffffffffffffffffffffffffffffffffffffffff1673ffffffffffffffffffffffffffffffffffffffff1681526020019081526020016000205481526020018873ffffffffffffffffffffffffffffffffffffffff1681526020018781525090506109b78782878787611833565b6109f6576040517f08c379a00000000000000000000000000000000000000000000000000000000081526004016109ed90612f2f565b60405180910390fd5b6001600260008973ffffffffffffffffffffffffffffffffffffffff1673ffffffffffffffffffffffffffffffffffffffff16815260200190815260200160002054610a42919061309f565b600260008973ffffffffffffffffffffffffffffffffffffffff1673ffffffffffffffffffffffffffffffffffffffff168152602001908152602001600020819055507f5845892132946850460bff5a0083f71031bc5bf9aadcd40f1de79423eac9b10b873388604051610ab893929190612c01565b60405180910390a16000803073ffffffffffffffffffffffffffffffffffffffff16888a604051602001610aed929190612b56565b604051602081830303815290604052604051610b099190612b3f565b6000604051808303816000865af19150503d8060008114610b46576040519150601f19603f3d011682016040523d82523d6000602084013e610b4b565b606091505b509150915081610b90576040517f08c379a0000000000000000000000000000000000000000000000000000000008152600401610b8790612dcf565b60405180910390fd5b80935050505095945050505050565b6040518060400160405280600181526020017f310000000000000000000000000000000000000000000000000000000000000081525081565b600a5481565b6000600154905090565b610bf9610bf361176b565b8261193c565b610c38576040517f08c379a0000000000000000000000000000000000000000000000000000000008152600401610c2f90612f8f565b60405180910390fd5b610c43838383611a1a565b505050565b6000600260008373ffffffffffffffffffffffffffffffffffffffff1673ffffffffffffffffffffffffffffffffffffffff168152602001908152602001600020549050919050565b6000804690508091505090565b610cb983838360405180602001604052806000815250611318565b505050565b610cc661176b565b73ffffffffffffffffffffffffffffffffffffffff16610ce4610f97565b73ffffffffffffffffffffffffffffffffffffffff1614610d3a576040517f08c379a0000000000000000000000000000000000000000000000000000000008152600401610d3190612eef565b60405180910390fd5b80600d9080519060200190610d50929190612275565b5050565b60006009600083815260200190815260200160002060009054906101000a900460ff16610da557600b60009054906101000a900473ffffffffffffffffffffffffffffffffffffffff169050610e52565b60006005600084815260200190815260200160002060009054906101000a900473ffffffffffffffffffffffffffffffffffffffff169050600073ffffffffffffffffffffffffffffffffffffffff168173ffffffffffffffffffffffffffffffffffffffff161415610e4d576040517f08c379a0000000000000000000000000000000000000000000000000000000008152600401610e4490612eaf565b60405180910390fd5b809150505b919050565b60008073ffffffffffffffffffffffffffffffffffffffff168273ffffffffffffffffffffffffffffffffffffffff161415610ec8576040517f08c379a0000000000000000000000000000000000000000000000000000000008152600401610ebf90612e8f565b60405180910390fd5b600660008373ffffffffffffffffffffffffffffffffffffffff1673ffffffffffffffffffffffffffffffffffffffff168152602001908152602001600020549050919050565b610f1761176b565b73ffffffffffffffffffffffffffffffffffffffff16610f35610f97565b73ffffffffffffffffffffffffffffffffffffffff1614610f8b576040517f08c379a0000000000000000000000000000000000000000000000000000000008152600401610f8290612eef565b60405180910390fd5b610f956000611ca2565b565b60008060009054906101000a900473ffffffffffffffffffffffffffffffffffffffff16905090565b606060048054610fcf90613239565b80601f0160208091040260200160405190810160405280929190818152602001828054610ffb90613239565b80156110485780601f1061101d57610100808354040283529160200191611048565b820191906000526020600020905b81548152906001019060200180831161102b57829003601f168201915b5050505050905090565b61105a61176b565b73ffffffffffffffffffffffffffffffffffffffff16611078610f97565b73ffffffffffffffffffffffffffffffffffffffff16146110ce576040517f08c379a00000000000000000000000000000000000000000000000000000000081526004016110c590612eef565b60405180910390fd5b60005b81811080156110ea5750600a546110e8600c611d66565b105b15611193576110f9600c611d66565b600b60009054906101000a900473ffffffffffffffffffffffffffffffffffffffff1673ffffffffffffffffffffffffffffffffffffffff16600073ffffffffffffffffffffffffffffffffffffffff167fddf252ad1be2c89b69c2b068fc378daa952ba7f163c4a11628f55a4df523b3ef60405160405180910390a4611180600c611d74565b808061118b9061329c565b9150506110d1565b5050565b61119f61176b565b73ffffffffffffffffffffffffffffffffffffffff168273ffffffffffffffffffffffffffffffffffffffff16141561120d576040517f08c379a000000000000000000000000000000000000000000000000000000000815260040161120490612e0f565b60405180910390fd5b806008600061121a61176b565b73ffffffffffffffffffffffffffffffffffffffff1673ffffffffffffffffffffffffffffffffffffffff16815260200190815260200160002060008473ffffffffffffffffffffffffffffffffffffffff1673ffffffffffffffffffffffffffffffffffffffff16815260200190815260200160002060006101000a81548160ff0219169083151502179055508173ffffffffffffffffffffffffffffffffffffffff166112c761176b565b73ffffffffffffffffffffffffffffffffffffffff167f17307eab39ab6107e8899845ad3d59bd9653f200f220920489ca2b5937696c318360405161130c9190612c8b565b60405180910390a35050565b61132961132361176b565b8361193c565b611368576040517f08c379a000000000000000000000000000000000000000000000000000000000815260040161135f90612f8f565b60405180910390fd5b61137484848484611d8a565b50505050565b60606113858261175d565b6113c4576040517f08c379a00000000000000000000000000000000000000000000000000000000081526004016113bb90612f4f565b60405180910390fd5b60006113ce611de6565b9050806113da84611e78565b600e60009054906101000a900460ff161561142a576040518060400160405280600581526020017f2e6a736f6e00000000000000000000000000000000000000000000000000000081525061143b565b604051806020016040528060008152505b60405160200161144d93929190612b7e565b604051602081830303815290604052915050919050565b60007358807bad0b376efc12f5ad86aac70e78ed67deae73ffffffffffffffffffffffffffffffffffffffff168273ffffffffffffffffffffffffffffffffffffffff1614156114b75760019050611544565b600860008473ffffffffffffffffffffffffffffffffffffffff1673ffffffffffffffffffffffffffffffffffffffff16815260200190815260200160002060008373ffffffffffffffffffffffffffffffffffffffff1673ffffffffffffffffffffffffffffffffffffffff16815260200190815260200160002060009054906101000a900460ff1690505b92915050565b61155261176b565b73ffffffffffffffffffffffffffffffffffffffff16611570610f97565b73ffffffffffffffffffffffffffffffffffffffff16146115c6576040517f08c379a00000000000000000000000000000000000000000000000000000000081526004016115bd90612eef565b60405180910390fd5b600073ffffffffffffffffffffffffffffffffffffffff168173ffffffffffffffffffffffffffffffffffffffff161415611636576040517f08c379a000000000000000000000000000000000000000000000000000000000815260040161162d90612daf565b60405180910390fd5b61163f81611ca2565b50565b60003073ffffffffffffffffffffffffffffffffffffffff163373ffffffffffffffffffffffffffffffffffffffff1614156116ec57600080368080601f016020809104026020016040519081016040528093929190818152602001838380828437600081840152601f19601f820116905080830192505050505050509050600080369050905073ffffffffffffffffffffffffffffffffffffffff8183015116925050506116f0565b3390505b90565b60007f01ffc9a7000000000000000000000000000000000000000000000000000000007bffffffffffffffffffffffffffffffffffffffffffffffffffffffff1916827bffffffffffffffffffffffffffffffffffffffffffffffffffffffff1916149050919050565b6000600a5482109050919050565b6000611775611642565b905090565b816007600083815260200190815260200160002060006101000a81548173ffffffffffffffffffffffffffffffffffffffff021916908373ffffffffffffffffffffffffffffffffffffffff160217905550808273ffffffffffffffffffffffffffffffffffffffff166117ed83610d54565b73ffffffffffffffffffffffffffffffffffffffff167f8c5be1e5ebec7d5bd14f71427d1e84f3dd0314c0f7b2291e5b200ac8c7c3b92560405160405180910390a45050565b60008073ffffffffffffffffffffffffffffffffffffffff168673ffffffffffffffffffffffffffffffffffffffff1614156118a4576040517f08c379a000000000000000000000000000000000000000000000000000000000815260040161189b90612e4f565b60405180910390fd5b60016118b76118b287612025565b61208d565b838686604051600081526020016040526040516118d79493929190612d06565b6020604051602081039080840390855afa1580156118f9573d6000803e3d6000fd5b5050506020604051035173ffffffffffffffffffffffffffffffffffffffff168673ffffffffffffffffffffffffffffffffffffffff1614905095945050505050565b60006119478261175d565b611986576040517f08c379a000000000000000000000000000000000000000000000000000000000815260040161197d90612e2f565b60405180910390fd5b600061199183610d54565b90508073ffffffffffffffffffffffffffffffffffffffff168473ffffffffffffffffffffffffffffffffffffffff161480611a0057508373ffffffffffffffffffffffffffffffffffffffff166119e884610797565b73ffffffffffffffffffffffffffffffffffffffff16145b80611a115750611a108185611464565b5b91505092915050565b8273ffffffffffffffffffffffffffffffffffffffff16611a3a82610d54565b73ffffffffffffffffffffffffffffffffffffffff1614611a90576040517f08c379a0000000000000000000000000000000000000000000000000000000008152600401611a8790612f0f565b60405180910390fd5b600073ffffffffffffffffffffffffffffffffffffffff168273ffffffffffffffffffffffffffffffffffffffff161415611b00576040517f08c379a0000000000000000000000000000000000000000000000000000000008152600401611af790612def565b60405180910390fd5b611b0b8383836120c6565b611b1660008261177a565b6001600660008573ffffffffffffffffffffffffffffffffffffffff1673ffffffffffffffffffffffffffffffffffffffff1681526020019081526020016000206000828254611b669190613126565b925050819055506001600660008473ffffffffffffffffffffffffffffffffffffffff1673ffffffffffffffffffffffffffffffffffffffff1681526020019081526020016000206000828254611bbd919061309f565b92505081905550816005600083815260200190815260200160002060006101000a81548173ffffffffffffffffffffffffffffffffffffffff021916908373ffffffffffffffffffffffffffffffffffffffff16021790555060016009600083815260200190815260200160002060006101000a81548160ff021916908315150217905550808273ffffffffffffffffffffffffffffffffffffffff168473ffffffffffffffffffffffffffffffffffffffff167fddf252ad1be2c89b69c2b068fc378daa952ba7f163c4a11628f55a4df523b3ef60405160405180910390a4505050565b60008060009054906101000a900473ffffffffffffffffffffffffffffffffffffffff169050816000806101000a81548173ffffffffffffffffffffffffffffffffffffffff021916908373ffffffffffffffffffffffffffffffffffffffff1602179055508173ffffffffffffffffffffffffffffffffffffffff168173ffffffffffffffffffffffffffffffffffffffff167f8be0079c531659141344cd1fd0a4f28419497f9722a3daafe3b4186f6b6457e060405160405180910390a35050565b600081600001549050919050565b6001816000016000828254019250508190555050565b611d95848484611a1a565b611da1848484846120cb565b611de0576040517f08c379a0000000000000000000000000000000000000000000000000000000008152600401611dd790612d8f565b60405180910390fd5b50505050565b6060600d8054611df590613239565b80601f0160208091040260200160405190810160405280929190818152602001828054611e2190613239565b8015611e6e5780601f10611e4357610100808354040283529160200191611e6e565b820191906000526020600020905b815481529060010190602001808311611e5157829003601f168201915b5050505050905090565b60606000821415611ec0576040518060400160405280600181526020017f30000000000000000000000000000000000000000000000000000000000000008152509050612020565b600082905060005b60008214611ef2578080611edb9061329c565b915050600a82611eeb91906130f5565b9150611ec8565b60008167ffffffffffffffff811115611f34577f4e487b7100000000000000000000000000000000000000000000000000000000600052604160045260246000fd5b6040519080825280601f01601f191660200182016040528015611f665781602001600182028036833780820191505090505b5090505b6000851461201957600182611f7f9190613126565b9150600a85611f8e9190613313565b6030611f9a919061309f565b60f81b818381518110611fd6577f4e487b7100000000000000000000000000000000000000000000000000000000600052603260045260246000fd5b60200101907effffffffffffffffffffffffffffffffffffffffffffffffffffffffffffff1916908160001a905350600a8561201291906130f5565b9450611f6a565b8093505050505b919050565b600060405180608001604052806043815260200161399f6043913980519060200120826000015183602001518460400151805190602001206040516020016120709493929190612cc1565b604051602081830303815290604052805190602001209050919050565b6000612097610bde565b826040516020016120a9929190612baf565b604051602081830303815290604052805190602001209050919050565b505050565b60006120ec8473ffffffffffffffffffffffffffffffffffffffff16612262565b15612255578373ffffffffffffffffffffffffffffffffffffffff1663150b7a0261211561176b565b8786866040518563ffffffff1660e01b81526004016121379493929190612c3f565b602060405180830381600087803b15801561215157600080fd5b505af192505050801561218257506040513d601f19601f8201168201806040525081019061217f91906126da565b60015b612205573d80600081146121b2576040519150601f19603f3d011682016040523d82523d6000602084013e6121b7565b606091505b506000815114156121fd576040517f08c379a00000000000000000000000000000000000000000000000000000000081526004016121f490612d8f565b60405180910390fd5b805181602001fd5b63150b7a0260e01b7bffffffffffffffffffffffffffffffffffffffffffffffffffffffff1916817bffffffffffffffffffffffffffffffffffffffffffffffffffffffff19161491505061225a565b600190505b949350505050565b600080823b905060008111915050919050565b82805461228190613239565b90600052602060002090601f0160209004810192826122a357600085556122ea565b82601f106122bc57805160ff19168380011785556122ea565b828001600101855582156122ea579182015b828111156122e95782518255916020019190600101906122ce565b5b5090506122f791906122fb565b5090565b5b808211156123145760008160009055506001016122fc565b5090565b600061232b61232684612fef565b612fca565b90508281526020810184848401111561234357600080fd5b61234e8482856131f7565b509392505050565b600061236961236484613020565b612fca565b90508281526020810184848401111561238157600080fd5b61238c8482856131f7565b509392505050565b6000813590506123a381613914565b92915050565b6000813590506123b88161392b565b92915050565b6000813590506123cd81613942565b92915050565b6000813590506123e281613959565b92915050565b6000815190506123f781613959565b92915050565b600082601f83011261240e57600080fd5b813561241e848260208601612318565b91505092915050565b600082601f83011261243857600080fd5b8135612448848260208601612356565b91505092915050565b60008135905061246081613970565b92915050565b60008135905061247581613987565b92915050565b60006020828403121561248d57600080fd5b600061249b84828501612394565b91505092915050565b600080604083850312156124b757600080fd5b60006124c585828601612394565b92505060206124d685828601612394565b9150509250929050565b6000806000606084860312156124f557600080fd5b600061250386828701612394565b935050602061251486828701612394565b925050604061252586828701612451565b9150509250925092565b6000806000806080858703121561254557600080fd5b600061255387828801612394565b945050602061256487828801612394565b935050604061257587828801612451565b925050606085013567ffffffffffffffff81111561259257600080fd5b61259e878288016123fd565b91505092959194509250565b600080604083850312156125bd57600080fd5b60006125cb85828601612394565b92505060206125dc858286016123a9565b9150509250929050565b600080600080600060a086880312156125fe57600080fd5b600061260c88828901612394565b955050602086013567ffffffffffffffff81111561262957600080fd5b612635888289016123fd565b9450506040612646888289016123be565b9350506060612657888289016123be565b925050608061266888828901612466565b9150509295509295909350565b6000806040838503121561268857600080fd5b600061269685828601612394565b92505060206126a785828601612451565b9150509250929050565b6000602082840312156126c357600080fd5b60006126d1848285016123d3565b91505092915050565b6000602082840312156126ec57600080fd5b60006126fa848285016123e8565b91505092915050565b60006020828403121561271557600080fd5b600082013567ffffffffffffffff81111561272f57600080fd5b61273b84828501612427565b91505092915050565b60006020828403121561275657600080fd5b600061276484828501612451565b91505092915050565b6127768161316c565b82525050565b6127858161315a565b82525050565b61279c6127978261315a565b6132e5565b82525050565b6127ab8161317e565b82525050565b6127ba8161318a565b82525050565b6127d16127cc8261318a565b6132f7565b82525050565b60006127e282613051565b6127ec8185613067565b93506127fc818560208601613206565b61280581613400565b840191505092915050565b600061281b82613051565b6128258185613078565b9350612835818560208601613206565b80840191505092915050565b600061284c8261305c565b6128568185613083565b9350612866818560208601613206565b61286f81613400565b840191505092915050565b60006128858261305c565b61288f8185613094565b935061289f818560208601613206565b80840191505092915050565b60006128b8603283613083565b91506128c38261341e565b604082019050919050565b60006128db602683613083565b91506128e68261346d565b604082019050919050565b60006128fe601c83613083565b9150612909826134bc565b602082019050919050565b6000612921600283613094565b915061292c826134e5565b600282019050919050565b6000612944602483613083565b915061294f8261350e565b604082019050919050565b6000612967601983613083565b91506129728261355d565b602082019050919050565b600061298a602c83613083565b915061299582613586565b604082019050919050565b60006129ad602583613083565b91506129b8826135d5565b604082019050919050565b60006129d0603883613083565b91506129db82613624565b604082019050919050565b60006129f3602a83613083565b91506129fe82613673565b604082019050919050565b6000612a16602983613083565b9150612a21826136c2565b604082019050919050565b6000612a39602c83613083565b9150612a4482613711565b604082019050919050565b6000612a5c602083613083565b9150612a6782613760565b602082019050919050565b6000612a7f602983613083565b9150612a8a82613789565b604082019050919050565b6000612aa2602183613083565b9150612aad826137d8565b604082019050919050565b6000612ac5602f83613083565b9150612ad082613827565b604082019050919050565b6000612ae8602183613083565b9150612af382613876565b604082019050919050565b6000612b0b603183613083565b9150612b16826138c5565b604082019050919050565b612b2a816131e0565b82525050565b612b39816131ea565b82525050565b6000612b4b8284612810565b915081905092915050565b6000612b628285612810565b9150612b6e828461278b565b6014820191508190509392505050565b6000612b8a828661287a565b9150612b96828561287a565b9150612ba2828461287a565b9150819050949350505050565b6000612bba82612914565b9150612bc682856127c0565b602082019150612bd682846127c0565b6020820191508190509392505050565b6000602082019050612bfb600083018461277c565b92915050565b6000606082019050612c16600083018661277c565b612c23602083018561276d565b8181036040830152612c3581846127d7565b9050949350505050565b6000608082019050612c54600083018761277c565b612c61602083018661277c565b612c6e6040830185612b21565b8181036060830152612c8081846127d7565b905095945050505050565b6000602082019050612ca060008301846127a2565b92915050565b6000602082019050612cbb60008301846127b1565b92915050565b6000608082019050612cd660008301876127b1565b612ce36020830186612b21565b612cf0604083018561277c565b612cfd60608301846127b1565b95945050505050565b6000608082019050612d1b60008301876127b1565b612d286020830186612b30565b612d3560408301856127b1565b612d4260608301846127b1565b95945050505050565b60006020820190508181036000830152612d6581846127d7565b905092915050565b60006020820190508181036000830152612d878184612841565b905092915050565b60006020820190508181036000830152612da8816128ab565b9050919050565b60006020820190508181036000830152612dc8816128ce565b9050919050565b60006020820190508181036000830152612de8816128f1565b9050919050565b60006020820190508181036000830152612e0881612937565b9050919050565b60006020820190508181036000830152612e288161295a565b9050919050565b60006020820190508181036000830152612e488161297d565b9050919050565b60006020820190508181036000830152612e68816129a0565b9050919050565b60006020820190508181036000830152612e88816129c3565b9050919050565b60006020820190508181036000830152612ea8816129e6565b9050919050565b60006020820190508181036000830152612ec881612a09565b9050919050565b60006020820190508181036000830152612ee881612a2c565b9050919050565b60006020820190508181036000830152612f0881612a4f565b9050919050565b60006020820190508181036000830152612f2881612a72565b9050919050565b60006020820190508181036000830152612f4881612a95565b9050919050565b60006020820190508181036000830152612f6881612ab8565b9050919050565b60006020820190508181036000830152612f8881612adb565b9050919050565b60006020820190508181036000830152612fa881612afe565b9050919050565b6000602082019050612fc46000830184612b21565b92915050565b6000612fd4612fe5565b9050612fe0828261326b565b919050565b6000604051905090565b600067ffffffffffffffff82111561300a576130096133d1565b5b61301382613400565b9050602081019050919050565b600067ffffffffffffffff82111561303b5761303a6133d1565b5b61304482613400565b9050602081019050919050565b600081519050919050565b600081519050919050565b600082825260208201905092915050565b600081905092915050565b600082825260208201905092915050565b600081905092915050565b60006130aa826131e0565b91506130b5836131e0565b9250827fffffffffffffffffffffffffffffffffffffffffffffffffffffffffffffffff038211156130ea576130e9613344565b5b828201905092915050565b6000613100826131e0565b915061310b836131e0565b92508261311b5761311a613373565b5b828204905092915050565b6000613131826131e0565b915061313c836131e0565b92508282101561314f5761314e613344565b5b828203905092915050565b6000613165826131c0565b9050919050565b6000613177826131c0565b9050919050565b60008115159050919050565b6000819050919050565b60007fffffffff0000000000000000000000000000000000000000000000000000000082169050919050565b600073ffffffffffffffffffffffffffffffffffffffff82169050919050565b6000819050919050565b600060ff82169050919050565b82818337600083830152505050565b60005b83811015613224578082015181840152602081019050613209565b83811115613233576000848401525b50505050565b6000600282049050600182168061325157607f821691505b60208210811415613265576132646133a2565b5b50919050565b61327482613400565b810181811067ffffffffffffffff82111715613293576132926133d1565b5b80604052505050565b60006132a7826131e0565b91507fffffffffffffffffffffffffffffffffffffffffffffffffffffffffffffffff8214156132da576132d9613344565b5b600182019050919050565b60006132f082613301565b9050919050565b6000819050919050565b600061330c82613411565b9050919050565b600061331e826131e0565b9150613329836131e0565b92508261333957613338613373565b5b828206905092915050565b7f4e487b7100000000000000000000000000000000000000000000000000000000600052601160045260246000fd5b7f4e487b7100000000000000000000000000000000000000000000000000000000600052601260045260246000fd5b7f4e487b7100000000000000000000000000000000000000000000000000000000600052602260045260246000fd5b7f4e487b7100000000000000000000000000000000000000000000000000000000600052604160045260246000fd5b6000601f19601f8301169050919050565b60008160601b9050919050565b7f4552433732313a207472616e7366657220746f206e6f6e20455243373231526560008201527f63656976657220696d706c656d656e7465720000000000000000000000000000602082015250565b7f4f776e61626c653a206e6577206f776e657220697320746865207a65726f206160008201527f6464726573730000000000000000000000000000000000000000000000000000602082015250565b7f46756e6374696f6e2063616c6c206e6f74207375636365737366756c00000000600082015250565b7f1901000000000000000000000000000000000000000000000000000000000000600082015250565b7f4552433732313a207472616e7366657220746f20746865207a65726f2061646460008201527f7265737300000000000000000000000000000000000000000000000000000000602082015250565b7f4552433732313a20617070726f766520746f2063616c6c657200000000000000600082015250565b7f4552433732313a206f70657261746f7220717565727920666f72206e6f6e657860008201527f697374656e7420746f6b656e0000000000000000000000000000000000000000602082015250565b7f4e61746976654d6574615472616e73616374696f6e3a20494e56414c49445f5360008201527f49474e4552000000000000000000000000000000000000000000000000000000602082015250565b7f4552433732313a20617070726f76652063616c6c6572206973206e6f74206f7760008201527f6e6572206e6f7220617070726f76656420666f7220616c6c0000000000000000602082015250565b7f4552433732313a2062616c616e636520717565727920666f7220746865207a6560008201527f726f206164647265737300000000000000000000000000000000000000000000602082015250565b7f4552433732313a206f776e657220717565727920666f72206e6f6e657869737460008201527f656e7420746f6b656e0000000000000000000000000000000000000000000000602082015250565b7f4552433732313a20617070726f76656420717565727920666f72206e6f6e657860008201527f697374656e7420746f6b656e0000000000000000000000000000000000000000602082015250565b7f4f776e61626c653a2063616c6c6572206973206e6f7420746865206f776e6572600082015250565b7f4552433732313a207472616e73666572206f6620746f6b656e2074686174206960008201527f73206e6f74206f776e0000000000000000000000000000000000000000000000602082015250565b7f5369676e657220616e64207369676e617475726520646f206e6f74206d61746360008201527f6800000000000000000000000000000000000000000000000000000000000000602082015250565b7f4552433732314d657461646174613a2055524920717565727920666f72206e6f60008201527f6e6578697374656e7420746f6b656e0000000000000000000000000000000000602082015250565b7f4552433732313a20617070726f76616c20746f2063757272656e74206f776e6560008201527f7200000000000000000000000000000000000000000000000000000000000000602082015250565b7f4552433732313a207472616e736665722063616c6c6572206973206e6f74206f60008201527f776e6572206e6f7220617070726f766564000000000000000000000000000000602082015250565b61391d8161315a565b811461392857600080fd5b50565b6139348161317e565b811461393f57600080fd5b50565b61394b8161318a565b811461395657600080fd5b50565b61396281613194565b811461396d57600080fd5b50565b613979816131e0565b811461398457600080fd5b50565b613990816131ea565b811461399b57600080fd5b5056fe4d6574615472616e73616374696f6e2875696e74323536206e6f6e63652c616464726573732066726f6d2c62797465732066756e6374696f6e5369676e617475726529a264697066735822122065a1c4f358c3b5d54380c01c3dfa8338ee276b613bdf4f910f1d536406d283aa64736f6c63430008040033",
  "immutableReferences": {},
  "source": "// SPDX-License-Identifier: MIT\n\npragma solidity ^0.8.4;\n\nimport \"./ContextMixin.sol\";\nimport \"./NativeMetaTransaction.sol\";\n\nimport \"@openzeppelin/contracts/token/ERC721/IERC721.sol\";\nimport \"@openzeppelin/contracts/token/ERC721/IERC721Receiver.sol\";\nimport \"@openzeppelin/contracts/token/ERC721/extensions/IERC721Metadata.sol\";\nimport \"@openzeppelin/contracts/utils/Address.sol\";\nimport \"@openzeppelin/contracts/utils/Context.sol\";\nimport \"@openzeppelin/contracts/utils/Strings.sol\";\nimport \"@openzeppelin/contracts/utils/introspection/ERC165.sol\";\nimport \"@openzeppelin/contracts/access/Ownable.sol\";\nimport \"@openzeppelin/contracts/utils/Counters.sol\";\n\n/**\n * @dev Implementation of https://eips.ethereum.org/EIPS/eip-721[ERC721] Non-Fungible Token Standard, including\n * the Metadata extension, but not including the Enumerable extension, which is available separately as\n * {ERC721Enumerable}.\n */\ncontract ERC721Polygon is Context, ERC165, IERC721, IERC721Metadata, Ownable, ContextMixin, NativeMetaTransaction {\n    using Address for address;\n    using Strings for uint256;\n    using Counters for Counters.Counter;\n\n    // Token name\n    string private _name;\n\n    // Token symbol\n    string private _symbol;\n\n    // Mapping from token ID to owner address\n    mapping(uint256 => address) private _owners;\n\n    // Mapping owner address to token count\n    mapping(address => uint256) private _balances;\n\n    // Mapping from token ID to approved address\n    mapping(uint256 => address) private _tokenApprovals;\n\n    // Mapping from owner to operator approvals\n    mapping(address => mapping(address => bool)) private _operatorApprovals;\n\n    // Mapping if token ID has been sold\n    mapping(uint256 => bool) private _sold;\n\n    uint256 public totalSupply;\n    address public creator;\n\n    Counters.Counter private _counter;\n    string private _uri = \"\";\n    bool private _addJSONToUrl;\n\n    /**\n     * @dev Initializes the contract by setting a `name` and a `symbol` to the token collection.\n     */\n    constructor(\n        string memory name_,\n        string memory symbol_,\n        uint256 totalSupply_,\n        address creator_,\n        bool addJSONToUrl_,\n        string memory uri_\n    ) {\n        _name = name_;\n        _symbol = symbol_;\n        _uri = uri_;\n        creator = creator_;\n        totalSupply = totalSupply_;\n        _addJSONToUrl = addJSONToUrl_;\n\n        _balances[creator] = totalSupply;\n    }\n\n    function mint(uint256 count) public onlyOwner {\n        for (uint i = 0; i < count && _counter.current() < totalSupply; i++) {\n            emit Transfer(address(0), creator, _counter.current());\n            _counter.increment();\n        }\n    }\n\n    /**\n     * @dev See {IERC721Metadata-tokenURI}.\n     */\n    function tokenURI(uint256 tokenId) public view virtual override returns (string memory) {\n        require(_exists(tokenId), \"ERC721Metadata: URI query for nonexistent token\");\n\n        string memory baseURI = _baseURI();\n        return string(abi.encodePacked(baseURI, tokenId.toString(), !_addJSONToUrl ? \"\" : \".json\"));\n    }\n\n    function _baseURI() internal view virtual returns (string memory) {\n        return _uri;\n    }\n\n    function setBaseURI(string memory baseURI) public onlyOwner {\n        _uri = baseURI;\n    }\n\n    /**\n     * This is used instead of msg.sender as transactions won't be sent by the original token owner, but by OpenSea.\n     */\n    function _msgSender() internal override view returns (address sender) {\n        return ContextMixin.msgSender();\n    }\n\n    /**\n     * @dev See {IERC165-supportsInterface}.\n     */\n    function supportsInterface(bytes4 interfaceId) public view virtual override(ERC165, IERC165) returns (bool) {\n        return\n            interfaceId == type(IERC721).interfaceId ||\n            interfaceId == type(IERC721Metadata).interfaceId ||\n            super.supportsInterface(interfaceId);\n    }\n\n    /**\n     * @dev See {IERC721-balanceOf}.\n     */\n    function balanceOf(address owner) public view virtual override returns (uint256) {\n        require(owner != address(0), \"ERC721: balance query for the zero address\");\n        return _balances[owner];\n    }\n\n    /**\n     * @dev See {IERC721-ownerOf}.\n     */\n    function ownerOf(uint256 tokenId) public view virtual override returns (address) {\n        if (!_sold[tokenId]) {\n            return address(creator);\n        }\n\n        address owner = _owners[tokenId];\n        require(owner != address(0), \"ERC721: owner query for nonexistent token\");\n        return owner;\n    }\n\n    /**\n     * @dev See {IERC721Metadata-name}.\n     */\n    function name() public view virtual override returns (string memory) {\n        return _name;\n    }\n\n    /**\n     * @dev See {IERC721Metadata-symbol}.\n     */\n    function symbol() public view virtual override returns (string memory) {\n        return _symbol;\n    }\n\n    /**\n     * @dev See {IERC721-approve}.\n     */\n    function approve(address to, uint256 tokenId) public virtual override {\n        address owner = ownerOf(tokenId);\n        require(to != owner, \"ERC721: approval to current owner\");\n\n        require(\n            _msgSender() == owner || isApprovedForAll(owner, _msgSender()),\n            \"ERC721: approve caller is not owner nor approved for all\"\n        );\n\n        _approve(to, tokenId);\n    }\n\n    /**\n     * @dev See {IERC721-getApproved}.\n     */\n    function getApproved(uint256 tokenId) public view virtual override returns (address) {\n        require(_exists(tokenId), \"ERC721: approved query for nonexistent token\");\n\n        return _tokenApprovals[tokenId];\n    }\n\n    /**\n     * @dev See {IERC721-setApprovalForAll}.\n     */\n    function setApprovalForAll(address operator, bool approved) public virtual override {\n        require(operator != _msgSender(), \"ERC721: approve to caller\");\n\n        _operatorApprovals[_msgSender()][operator] = approved;\n        emit ApprovalForAll(_msgSender(), operator, approved);\n    }\n\n    /**\n     * @dev See {IERC721-isApprovedForAll}.\n     */\n    function isApprovedForAll(address owner, address operator) public view virtual override returns (bool) {\n        if (operator == address(0x58807baD0B376efc12F5AD86aAc70E78ed67deaE)) {\n            return true;\n        }\n\n        return _operatorApprovals[owner][operator];\n    }\n\n    /**\n     * @dev See {IERC721-transferFrom}.\n     */\n    function transferFrom(\n        address from,\n        address to,\n        uint256 tokenId\n    ) public virtual override {\n        //solhint-disable-next-line max-line-length\n        require(_isApprovedOrOwner(_msgSender(), tokenId), \"ERC721: transfer caller is not owner nor approved\");\n\n        _transfer(from, to, tokenId);\n    }\n\n    /**\n     * @dev See {IERC721-safeTransferFrom}.\n     */\n    function safeTransferFrom(\n        address from,\n        address to,\n        uint256 tokenId\n    ) public virtual override {\n        safeTransferFrom(from, to, tokenId, \"\");\n    }\n\n    /**\n     * @dev See {IERC721-safeTransferFrom}.\n     */\n    function safeTransferFrom(\n        address from,\n        address to,\n        uint256 tokenId,\n        bytes memory _data\n    ) public virtual override {\n        require(_isApprovedOrOwner(_msgSender(), tokenId), \"ERC721: transfer caller is not owner nor approved\");\n        _safeTransfer(from, to, tokenId, _data);\n    }\n\n    /**\n     * @dev Safely transfers `tokenId` token from `from` to `to`, checking first that contract recipients\n     * are aware of the ERC721 protocol to prevent tokens from being forever locked.\n     *\n     * `_data` is additional data, it has no specified format and it is sent in call to `to`.\n     *\n     * This internal function is equivalent to {safeTransferFrom}, and can be used to e.g.\n     * implement alternative mechanisms to perform token transfer, such as signature-based.\n     *\n     * Requirements:\n     *\n     * - `from` cannot be the zero address.\n     * - `to` cannot be the zero address.\n     * - `tokenId` token must exist and be owned by `from`.\n     * - If `to` refers to a smart contract, it must implement {IERC721Receiver-onERC721Received}, which is called upon a safe transfer.\n     *\n     * Emits a {Transfer} event.\n     */\n    function _safeTransfer(\n        address from,\n        address to,\n        uint256 tokenId,\n        bytes memory _data\n    ) internal virtual {\n        _transfer(from, to, tokenId);\n        require(_checkOnERC721Received(from, to, tokenId, _data), \"ERC721: transfer to non ERC721Receiver implementer\");\n    }\n\n    /**\n     * @dev Returns whether `tokenId` exists.\n     *\n     * Tokens can be managed by their owner or approved accounts via {approve} or {setApprovalForAll}.\n     *\n     * Tokens start existing when they are minted (`_mint`),\n     * and stop existing when they are burned (`_burn`).\n     */\n    function _exists(uint256 tokenId) internal view virtual returns (bool) {\n        return tokenId < totalSupply;\n    }\n\n    /**\n     * @dev Returns whether `spender` is allowed to manage `tokenId`.\n     *\n     * Requirements:\n     *\n     * - `tokenId` must exist.\n     */\n    function _isApprovedOrOwner(address spender, uint256 tokenId) internal view virtual returns (bool) {\n        require(_exists(tokenId), \"ERC721: operator query for nonexistent token\");\n        address owner = ownerOf(tokenId);\n        return (spender == owner || getApproved(tokenId) == spender || isApprovedForAll(owner, spender));\n    }\n\n    /**\n     * @dev Transfers `tokenId` from `from` to `to`.\n     *  As opposed to {transferFrom}, this imposes no restrictions on msg.sender.\n     *\n     * Requirements:\n     *\n     * - `to` cannot be the zero address.\n     * - `tokenId` token must be owned by `from`.\n     *\n     * Emits a {Transfer} event.\n     */\n    function _transfer(\n        address from,\n        address to,\n        uint256 tokenId\n    ) internal virtual {\n        require(ownerOf(tokenId) == from, \"ERC721: transfer of token that is not own\");\n        require(to != address(0), \"ERC721: transfer to the zero address\");\n\n        _beforeTokenTransfer(from, to, tokenId);\n\n        // Clear approvals from the previous owner\n        _approve(address(0), tokenId);\n\n        _balances[from] -= 1;\n        _balances[to] += 1;\n        _owners[tokenId] = to;\n        _sold[tokenId] = true;\n\n        emit Transfer(from, to, tokenId);\n    }\n\n    /**\n     * @dev Approve `to` to operate on `tokenId`\n     *\n     * Emits a {Approval} event.\n     */\n    function _approve(address to, uint256 tokenId) internal virtual {\n        _tokenApprovals[tokenId] = to;\n        emit Approval(ownerOf(tokenId), to, tokenId);\n    }\n\n    /**\n     * @dev Internal function to invoke {IERC721Receiver-onERC721Received} on a target address.\n     * The call is not executed if the target address is not a contract.\n     *\n     * @param from address representing the previous owner of the given token ID\n     * @param to target address that will receive the tokens\n     * @param tokenId uint256 ID of the token to be transferred\n     * @param _data bytes optional data to send along with the call\n     * @return bool whether the call correctly returned the expected magic value\n     */\n    function _checkOnERC721Received(\n        address from,\n        address to,\n        uint256 tokenId,\n        bytes memory _data\n    ) private returns (bool) {\n        if (to.isContract()) {\n            try IERC721Receiver(to).onERC721Received(_msgSender(), from, tokenId, _data) returns (bytes4 retval) {\n                return retval == IERC721Receiver.onERC721Received.selector;\n            } catch (bytes memory reason) {\n                if (reason.length == 0) {\n                    revert(\"ERC721: transfer to non ERC721Receiver implementer\");\n                } else {\n                    assembly {\n                        revert(add(32, reason), mload(reason))\n                    }\n                }\n            }\n        } else {\n            return true;\n        }\n    }\n\n    /**\n     * @dev Hook that is called before any token transfer. This includes minting\n     * and burning.\n     *\n     * Calling conditions:\n     *\n     * - When `from` and `to` are both non-zero, ``from``'s `tokenId` will be\n     * transferred to `to`.\n     * - When `from` is zero, `tokenId` will be minted for `to`.\n     * - When `to` is zero, ``from``'s `tokenId` will be burned.\n     * - `from` and `to` are never both zero.\n     *\n     * To learn more about hooks, head to xref:ROOT:extending-contracts.adoc#using-hooks[Using Hooks].\n     */\n    function _beforeTokenTransfer(\n        address from,\n        address to,\n        uint256 tokenId\n    ) internal virtual {}\n}\n",
  "sourcePath": "/Users/martin/Work/personal/nfts/nft-contracts/contracts/ERC721Polygon.sol",
  "compiler": {
    "name": "solc",
    "version": "0.8.4+commit.c7e474f2.Emscripten.clang"
  },
  "schemaVersion": "3.4.3",
  "updatedAt": "2021-10-27T02:04:54.442Z",
  "networkType": "ethereum",
  "devdoc": {
    "details": "Implementation of https://eips.ethereum.org/EIPS/eip-721[ERC721] Non-Fungible Token Standard, including the Metadata extension, but not including the Enumerable extension, which is available separately as {ERC721Enumerable}.",
    "kind": "dev",
    "methods": {
      "approve(address,uint256)": {
        "details": "See {IERC721-approve}."
      },
      "balanceOf(address)": {
        "details": "See {IERC721-balanceOf}."
      },
      "constructor": {
        "details": "Initializes the contract by setting a `name` and a `symbol` to the token collection."
      },
      "getApproved(uint256)": {
        "details": "See {IERC721-getApproved}."
      },
      "isApprovedForAll(address,address)": {
        "details": "See {IERC721-isApprovedForAll}."
      },
      "name()": {
        "details": "See {IERC721Metadata-name}."
      },
      "owner()": {
        "details": "Returns the address of the current owner."
      },
      "ownerOf(uint256)": {
        "details": "See {IERC721-ownerOf}."
      },
      "renounceOwnership()": {
        "details": "Leaves the contract without owner. It will not be possible to call `onlyOwner` functions anymore. Can only be called by the current owner. NOTE: Renouncing ownership will leave the contract without an owner, thereby removing any functionality that is only available to the owner."
      },
      "safeTransferFrom(address,address,uint256)": {
        "details": "See {IERC721-safeTransferFrom}."
      },
      "safeTransferFrom(address,address,uint256,bytes)": {
        "details": "See {IERC721-safeTransferFrom}."
      },
      "setApprovalForAll(address,bool)": {
        "details": "See {IERC721-setApprovalForAll}."
      },
      "supportsInterface(bytes4)": {
        "details": "See {IERC165-supportsInterface}."
      },
      "symbol()": {
        "details": "See {IERC721Metadata-symbol}."
      },
      "tokenURI(uint256)": {
        "details": "See {IERC721Metadata-tokenURI}."
      },
      "transferFrom(address,address,uint256)": {
        "details": "See {IERC721-transferFrom}."
      },
      "transferOwnership(address)": {
        "details": "Transfers ownership of the contract to a new account (`newOwner`). Can only be called by the current owner."
      }
    },
    "version": 1
  },
  "userdoc": {
    "kind": "user",
    "methods": {},
    "version": 1
  }
}